:020000040800F2
:100000009037002049010008672B0008331C0008C6
:10001000632B0008DD10000801420008000000000A
:10002000000000000000000000000000AD370008E4
:10003000B51300080000000079300008C93A000834
:100040006301000863010008630100086301000800
:1000500063010008630100086301000863010008F0
:1000600063010008630100086301000863010008E0
:1000700063010008630100086301000863010008D0
:1000800063010008630100086301000863010008C0
:1000900063010008630100086301000863010008B0
:1000A00063010008630100086301000863010008A0
:1000B0006301000863010008893B00086301000830
:1000C0006301000863010008630100086301000880
:1000D00063010008113D0008993D00086301000814
:1000E0006301000863010008630100086301000860
:1000F0006301000863010008630100086301000850
:10010000630100086301000863010008630100083F
:10011000630100086301000863010008630100082F
:10012000630100086301000863010008630100081F
:10013000DFF810D000F01EFE00480047E55400082C
:10014000AFF30080903700200648804706480047FC
:10015000FEE7FEE7FEE7FEE7FEE7FEE7FEE7FEE777
:10016000FEE7FEE7FD3A000831010008A0F1410179
:10017000192900D82030704740EA01039B0703D0BB
:1001800009E008C9121F08C0042AFAD203E011F8D6
:10019000013B00F8013B521EF9D27047D2B201E098
:1001A00000F8012B491EFBD270470022F6E710B57C
:1001B00013460A4604461946FFF7F0FF204610BDD5
:1001C000421E12F8013F002BFBD111F8013B02F84F
:1001D000013B002BF9D1704730B505462A460B4646
:1001E00012F8010B13F8014B08B1A042F8D01CB172
:1001F000002802D06D1CF1E7284630BDCAB2401E6F
:1002000010F8011F8A4202D00029F9D1002070475E
:10021000421C10F8011B0029FBD1801A704710B551
:10022000002200E0521C835C8C5CA34201D1002BB5
:10023000F8D1D8B2E1B2401A10BD10B5044600E0C2
:10024000401C0378002BFBD100E0401C521E04D35D
:1002500011F8013B0370002BF7D1002101702046FB
:1002600010BD30B505460020034600E05B1C9342FC
:1002700005D2EC5CC85C201A01D1002CF6D130BD4F
:100280002DE9FF4F087883B09946FF2805D0491C17
:100290002D2804D00024002008E000200BE00124D9
:1002A000F9E700EB800003EB4000491C0B78FF2BC3
:1002B000F7D104B1404200230293147819461D4639
:1002C0002D2C01D02B2C04D1521C2D2C13D000240A
:1002D0000294AA461478FF2C0FD00A25A3FB0578B8
:1002E00001FB05814FF0000C03FB0C11521CE319BC
:1002F0004AEB0101EEE70124EAE7814453EA0100F9
:1003000002D019F5C87F06DA03980021C0E9001170
:1003100007B0BDE8F08F0025AE4E2F46DFF8B8825B
:10032000184600F003FDCDE90001B9F1000002DA42
:10033000C9F1000400E004460023A74A1AEB030BAE
:1003400042EB045A12E0E00707D02A46334638460B
:10035000414600F0ECF9074688462A4633461046E7
:10036000194600F0E4F905460E466410002CEAD167
:10037000DDE90001B9F1000F5A46534606DA00F0F4
:1003800048FA3A46434600F044FA05E000F0CFF957
:100390003A46434600F0CBF9029A0AB181F0004197
:1003A000039AC2E90001B3E72DE9FF4F1F468DB064
:1003B000D7E901464FF0FF382E2045464FF000099F
:1003C0000B90B9696D1C0E988847396A8246884738
:1003D0000028F6D1BAF1FF3F0AD024F4D064002EF1
:1003E00011DDBAF12B0F08D0BAF12D0F0BD102E0BD
:1003F000404611B08DE744F48064B9696D1C0E98D5
:1004000088478246761E6946600501D52D2000E0AA
:100410002B208DF8000001F1010B0DF1200809E0FF
:10042000B9696D1C0E98884782460F9844F4007491
:10043000761E0560002E02DDBAF1300FF0D00B9968
:100440008A453ED144F0800406E00F99681CA9F16A
:10045000010944F400740860B9696D1C761E0E9899
:10046000884782463028F0D02BE00B998A4505D189
:10047000200603D444F08004761E18E0504604F0B1
:100480005DF808B30DF11301761E44F400748B453A
:1004900008D2AAF130000BF8010B200607D5A9F10C
:1004A000010003E0200602D409F101008146A00505
:1004B00002D50F99681C0860B9696D1C0E988847B1
:1004C0008246002ED1DC53E0002E51DDBAF1650FDB
:1004D00002D0BAF1450F4BD1A00549D5B9696D1CC1
:1004E00024F44074761E0E9888478246002E0CDD58
:1004F0002B2804D0BAF12D0F07D144F48074B969C8
:100500006D1C0E9888478246761EE00501D52D2188
:1005100000E02B2108F8011BCDF82C8021E00DF123
:100520002901761E44F4007488450CD2AAF13000EB
:1005300010F0FF0088F8000002D10B99884509D916
:1005400008F1010806E0E00501D5244801E042F287
:100550000F708146B9696D1C0E98884782460F98C6
:100560000560002E04DD504603F0E8FF0028D6D1D8
:10057000F9690E988847FF208BF8000088F8000082
:100580000020069007904B466A4608A906A8FFF788
:1005900077FEA00502D46FF001002AE714F0240FC3
:1005A0000AD0E00714D1DDE906123868031D3B606C
:1005B0000068C0E900120BE0DDE9060100F00CFA6A
:1005C0000146E00704D13868021D3A600068016006
:1005D00028460EE7000014400000F03FF1D8FFFF6E
:1005E0002DE9FE4F804681EA0300C00F0C460090C3
:1005F00021F0004123F00045B8EB0200A94105D2EB
:100600004046214690461C460B46024623F00040D9
:10061000104347D0270DC7F30A00C3F30A510290D5
:10062000401A019040286BDAC3F3130040F4801B9A
:100630000098924620B10023D2EB030A63EB0B0B28
:1006400001985946C0F14002504600F03CFA064677
:100650000D4650465946019A00F054FA10EB080036
:100660006141002487EA115284EAE7731A4340D0BB
:10067000009A62B3019A012A4FEA075215DC001B67
:1006800061EB02014FF0004202EA0752CDE900425D
:10069000001C41F5801132462B4600F0F9FA03B0F8
:1006A000BDE8F08F40462146F9E7001B61EB0201EF
:1006B000001C41F5801300185B412018A2F50017BB
:1006C00047EB030140EAD570B6196D4111E06D08A2
:1006D0004FEA360645EAC0754FEA0752001B61EB48
:1006E0000201001C41F5801149084FEA3000001951
:1006F000514132462B4603B0BDE8F04F00F0B9BA85
:100700000098012240000023D0EB020263EBE0736B
:10071000009821464FEAE074B8EB000061EB040159
:10072000E9E783F000435BE781F0004158E72DE9FA
:10073000FE4F81EA030404F0004421F000410094DC
:100740004FF0000B23F0004350EA01045ED052EA60
:1007500003045BD0C3F30A54C1F30A552C44A4F23A
:10076000F3340194A0FB0254C1F3130141F480114E
:10077000C3F3130343F4801301FB024400FB034E55
:10078000840A970A44EA815447EA8357A4FB07681E
:1007900002958D0A05FB07854FEA932C04FB0C5448
:1007A0002705029D4FEA065847EA1637B5EB0805BC
:1007B0006EEB070C870E920E47EA811742EA83120E
:1007C000A7FB0201B6EB0B0164EB00042B0D43EA1F
:1007D0000C335E1844EB1C50DA465146E7FB02012D
:1007E000C5F313044FEA0B3343EA14534FEA0432C0
:1007F000019C43EA0603A4F10C040294009CCDE999
:1008000000B400F045FA03B0BDE8F08F00200146C7
:10081000F9E72DE9F04D81EA030404F0004B21F0E3
:10082000004514464FF0000A23F0004150EA05024B
:1008300020D054EA01021DD0C5F30A570246C5F381
:100840001303C1F31300C1F30A5640F4801543F4B7
:100850008013A7EB0608101BD64608F2FD3873EB91
:10086000050002D308F1010801E092185B41B8F1DC
:10087000000F03DA00200146BDE8F08D00204FF4A0
:100880008011064684460EE0171B73EB050705D35F
:10089000121B63EB050306434CEA010C49084FEABF
:1008A000300092185B4150EA0107EDD152EA030093
:1008B00012D082EA040083EA0501084305D0101B28
:1008C000AB4106D20122002306E000224FF0004394
:1008D00002E06FF0010253101AEB06004CEB0851D6
:1008E00010EB0A0041EB0B01BDE8F04D00F0C1B97F
:1008F00096230022114600F08EB90EB540F2334126
:1009000002910021CDE900110A460B4600F0C0F922
:1009100003B000BD70B5C1F30A5201F000450024D8
:10092000C1F3130140F2FF3341F480119A4201DA1E
:10093000002070BD40F233439A42A2F2334203DCFE
:10094000524200F0CFF800E090402C43F1D04042FA
:1009500070BD00F0004230F000400AD0C10D01F53A
:100960006071C0F3160042EA0151C208400711430A
:10097000704700200146704730B5041E71F1000435
:1009800004DB4FF00044404264EB0101141E73F19C
:10099000000405DB1C464FF00043524263EB0403A6
:1009A0008B4208BF824230BD30B5041E71F1000495
:1009B00004DB4FF00044404264EB0101141E73F16C
:1009C000000405DB1C464FF00043524263EB040376
:1009D000994208BF904230BD01F0004330B421F08D
:1009E000004150EA010206D00A0DA2F56072C1F37F
:1009F0001301002A02DC30BC00207047440F44EA97
:100A0000C104C100E01830BC00EBC25000F0FAB8DD
:100A1000002801DBC0F10040002901DBC1F10041E9
:100A200081427047002801DBC0F10040002901DB52
:100A3000C1F100418842704730B50B4601460020A5
:100A40002022012409E021FA02F59D4205D303FA90
:100A500002F5491B04FA02F52844151EA2F1010211
:100A6000F1DC30BD2DE9F05F0546002092469B4643
:100A700088460646814640241BE0284641464746B4
:100A8000224600F02FF853465A46C01A914110D31F
:100A900011461846224600F016F82D1A67EB010899
:100AA0004F4622460120002100F00DF817EB000907
:100AB0004E41201EA4F10104DFDC484631462A469F
:100AC0004346BDE8F09F202A04DB203A00FA02F1F9
:100AD000002070479140C2F1200320FA03F319432C
:100AE00090407047202A04DB203A21FA02F00021CE
:100AF000704721FA02F3D040C2F12002914008432E
:100B000019467047202A06DBCB17203A41FA02F03B
:100B100043EAE07306E041FA02F3D040C2F120025A
:100B20009140084319467047426842B1016811F884
:100B3000013B23B1521EC0E9001218467047012143
:100B4000C160881E704742685AB1C368016843B9E2
:100B500083688B4205D0491E521CC0E90012002058
:100B600070474FF0FF3070470FB4002300B589B0D5
:100B70000CA900910B996FF00042CB601E4B0693BD
:100B80001E4B07930423CDE901321D4A0892024609
:100B90006B460020FFF708FC09B05DF814FB70B548
:100BA00086B006464FF0FF300091CDE901010020EC
:100BB00015460C4604903246694604A8FFF7D4FF58
:100BC00002460498211825B108B1084600E02046E5
:100BD0002860049800280DD0002A02DD0098884281
:100BE00008D0081B0094CDE901043246694604A8E8
:100BF000FFF7BAFF06B070BD290B0008470B0008CD
:100C0000990D00080029A8BF7047401C490008BF83
:100C100020F00100704710B4B0FA80FC00FA0CF02C
:100C200050EA010404BF10BC704749B1CCF1200464
:100C300021FA04F411FA0CF118BF012121430843F1
:100C4000A3EB0C01CB1D4FEA00614FEA102042BF1D
:100C5000002010BC704700EBC35010440029A4BF13
:100C600010BC7047401C490008BF20F0010010BCB8
:100C7000704710B5141E73F1000408DA401C41F1EE
:100C8000000192185B411A4301D120F0010010BD10
:100C90002DE9F04D92469B4611B1B1FA81F202E086
:100CA000B0FA80F220329046FFF70DFF04460F465F
:100CB00040EA0A0041EA0B0153465A46084313D062
:100CC000114653EA010019D0C8F140025046FFF71F
:100CD00009FF05460E46504659464246FFF7F3FEC9
:100CE000084305D0012004E020463946BDE8F08DD8
:100CF0000020054346EAE0762C4337430A98630513
:100D0000E40AA0EB08000022FD0A44EA47540A3036
:100D100002D500200146E9E7010510196941DDE926
:100D2000084500196941BDE8F04DA2E70EB540F253
:100D3000334202920022CDE900221346FFF7A8FFBA
:100D400003B000BDC1F30A52C1F3130140F2FF33F7
:100D500041F480119A4202DA00200146704740F2C5
:100D600033439A42A2F2334202DC5242FFF7BABE48
:100D7000FFF7A9BE064C074D06E0E06840F001030E
:100D800094E8070098471034AC42F6D3FFF7D4F943
:100D9000B4600008D4600008C0B24FF4F05100F015
:100DA00001B800007F2801D9002208E0064A02EBC2
:100DB0005002C007127800D1120902F00F02012080
:100DC0009040084070470000B85F000870B58C186C
:100DD00010F8015B15F0070301D110F8013B2A114F
:100DE00006D110F8012B03E010F8016B01F8016B3C
:100DF0005B1EF9D12B0705D40023521E0DD401F838
:100E0000013BFAE710F8013BCB1A921C03E013F800
:100E1000015B01F8015B521EF9D5A142D8D3002035
:100E200070BD21B1826842F00102826003E08268F5
:100E300022F001028260704721B1826842F4807220
:100E4000826003E0826822F480728260704701460B
:100E500000208A6802F004020AB1012000E00020AC
:100E60007047014600208A6802F008020AB101209A
:100E700000E000207047000030B50246002000234B
:100E800050680F4C20400D790C6844EA052420433B
:100E9000506090680B4C2040D1E902542C434D79AE
:100EA00044EA450420439060D06A20F470000C7C32
:100EB000641EE4B2234340EA0350D06230BD000018
:100EC000FFFEF0FFFDF7F1FFF0B504460D460020F0
:100ED0000021092D11DDE068A5F10A0606EB4607A1
:100EE000072606FA07F18843A5F10A0606EB46062F
:100EF00003FA06F10843E0600CE0206905EB4507C2
:100F0000072606FA07F1884305EB450603FA06F1C2
:100F100008432061072A0FDA606B561E06EB86072E
:100F20001F2606FA07F18843561E06EB860605FAC9
:100F300006F10843606322E00D2A0FDA206BD61F0A
:100F400006EB86071F2606FA07F18843D61F06EB35
:100F5000860605FA06F10843206310E0E06AA2F174
:100F60000D0606EB86071F2606FA07F18843A2F155
:100F70000D0606EB860605FA06F10843E062F0BDB1
:100F8000816841F008018160704721B1826842F4B4
:100F9000A002826003E0826822F4A00282607047AF
:100FA000816841F0040181607047000008B50121AB
:100FB000042002F08FF80220ADF8000000208DF828
:100FC00003006946014800F054FD08BD00080140D7
:100FD00010B5FFF7EBFF00F001F810BD00B591B0C0
:100FE0000121084602F056F80121480202F072F889
:100FF000334800F01BF9334806903348079000202F
:1010000008900120099000200A9080200B90400059
:101010000C9080000D9020200E9000020F90002078
:10102000109006A9264800F0A7F90121244800F0F5
:10103000F1F80020019001208DF808008DF80900DA
:101040004FF4602003900020049001208DF81400DC
:1010500001A91C484C38FFF70FFF4FF4404002F045
:101060000DF805230122114616484C38FFF72CFFD6
:10107000012114484C38FFF7DFFE012111484C389C
:10108000FFF7CFFE0F484C38FFF77AFF00BF0D483F
:101090004C38FFF7E6FE0028F9D10A484C38FFF734
:1010A0007FFF00BF07484C38FFF7D1FE0028F9D179
:1010B000012104484C38FFF768FF11B000BD000063
:1010C000080002404C2401406C0C002010B504F0D4
:1010D000BFF80149887410BD7C27002000BFFEE7DF
:1010E00010B5012000F0F6FD04463CB12A48007816
:1010F00020B92A48047001202749087064B12648A5
:101100000078012808DB244800781E2804DC2248E7
:101110000078401C204908703CBB1F48007800281C
:1011200023DD1D4800781E281FDA1C48007801289E
:1011300004D0022811D0032811D10FE018480078FC
:1011400018B100201649087002E001201449087007
:10115000134800781349487102E001E000E000BF45
:1011600000BF00200C49087015E0A4B90A480078B7
:101170001E2810DB09480078012804D0022803D07B
:10118000032803D101E002E001E000E000BF00BF5E
:1011900000200149087010BDCA0C0020CB0C0020B3
:1011A000C40C00207C27002008B50121042001F098
:1011B00091FF1020ADF800008DF8030003208DF89A
:1011C00002006946034800F054FC1021014800F079
:1011D0002EFD08BD0008014008B51020ADF8000044
:1011E00048208DF803006946014800F042FC08BD24
:1011F0000008014008B51020ADF800008DF803008C
:1012000003208DF802006946014800F032FC08BD59
:101210000008014021B1026842F00102026004E0CE
:1012200002684FF6FE731A400260704701684FF67D
:10123000FE72114001600021016041608160C16067
:101240004B49884208D14A490839496841F00F01A1
:10125000474A083A51608AE045491431884208D12A
:1012600043490839496841F0F001414A083A516060
:101270007DE03F492831884208D13D490839496815
:1012800041F470613A4A083A516070E038493C31A3
:10129000884208D136490839496841F47041344AD6
:1012A000083A516063E032495031884208D13049F0
:1012B0000839496841F470212D4A083A516056E0D6
:1012C0002B496431884208D129490839496841F4D9
:1012D0007001274A083A516049E02549783188422F
:1012E00008D123490839496841F07061204A083A19
:1012F00051603CE01F49884206D1011F096841F056
:101300000F01021F116032E01A491431884208D1DE
:101310001849091F096841F0F001164A121F1160AF
:1013200025E014492831884208D11249091F09686B
:1013300041F470610F4A121F116018E00D493C31F1
:10134000884208D10B49091F096841F47041094AD4
:10135000121F11600BE007495031884207D105493F
:10136000091F096841F47021024A121F1160704779
:10137000080002400804024010B50022026847F647
:10138000F0739A430C6A8B6823430C6923434C69BE
:1013900023438C692343CC6923434C6A23438C6ADF
:1013A00023431A430260CB6843600B6883604B6839
:1013B000C36010BD7047000030B58BB000200790AF
:1013C000089009900A900125354B364A36A13DA078
:1013D00002F068FF07A8002102910391CDE90410F3
:1013E00000912B022E4A01912E492FA000F094FE6D
:1013F000002843D1089A91B2079800F03DFAFA20EC
:1014000000F002F90446002C2FD0204601F04CFBDE
:1014100002282AD1204601F018FA062820D2DFE857
:1014200000F0030B0F13171B2EA002F03BFF00254B
:1014300000203149C87017E030A002F033FF13E0FC
:1014400035A002F02FFF0FE03CA002F02BFF0BE0D5
:1014500042A002F027FF07E049A002F023FF03E0CB
:1014600052A002F01FFF00BF00BF2348C078401CFD
:101470002149C87007A800F081FC07E01E48C07829
:10148000401C1D49C87050A002F00CFF1A48C078DB
:10149000022801DD02F01AFB28460BB030BD000027
:1014A0005C60000818600008736D6172745F6465A9
:1014B00076696365266839736A7375566C66477317
:1014C0000000000050524F49443A2025730941550D
:1014D00049463A2025730944455649443A25730D37
:1014E0000A000000546970733A09C1ACBDD3B3C996
:1014F000B9A60D0A000000007C2700205741524E7B
:101500003A09C1ACBDD3CAA7B0DCA3BAD0ADD2E909
:10151000B4EDCEF30D0A00005741524E3A09C1AC6A
:10152000BDD3CAA7B0DCA3BAB7C7B7A8B5C4636CAC
:1015300069656E7469640D0A000000005741524EDF
:101540003A09C1ACBDD3CAA7B0DCA3BAB7FECEF18D
:10155000C6F7CAA7B0DC0D0A000000005741524E82
:101560003A09C1ACBDD3CAA7B0DCA3BAD3C3BBA7E9
:10157000C3FBBBF2C3DCC2EBB4EDCEF30D0A00003B
:101580005741524E3A09C1ACBDD3CAA7B0DCA3BA89
:10159000B7C7B7A8C1B4BDD328B1C8C8E7746F6BCB
:1015A000656EB7C7B7A8290D0A0000004552523A28
:1015B00009C1ACBDD3CAA7B0DCA3BACEB4D6AAB415
:1015C000EDCEF30D0A0000005741524E3A094D513D
:1015D00054545F5061636B6574436F6E6E656374E2
:1015E000204661696C65640D0A00000010B54FF477
:1015F00080710348FEF7D9FD00200249088010BD24
:101600007A1E00209E0C002070B50546002400BF05
:1016100000F054F980B90DA10E48FEF7DDFD044637
:1016200054B13A212046FEF7E9FD044614B1641C8A
:10163000204670BD0020FCE7052003F0AFFD281E0A
:10164000A5F101018DB2E3D100BFF2E74950442C6E
:10165000000000007A1E002000B5A1B0FA2003F0BF
:101660009DFDFFF7C3FF32A002F01CFE03E04FF424
:10167000967003F093FDC8222FA130A000F0D4F89B
:101680000028F4D12FA002F00DFE03E04FF4967075
:1016900003F084FDC82228A12DA000F0C5F8002881
:1016A000F4D12FA002F0FEFD03E04FF4967003F09A
:1016B00075FDC82220A12DA000F0B6F80028F4D1B5
:1016C0002EA002F0EFFD802101A8FEF76EFD2DA3F4
:1016D0002FA230A101A802F0F5FD03E04FF49670AF
:1016E00003F05CFDC82231A101A800F09DF800289C
:1016F000F4D130A002F0D6FD802101A8FEF755FDFF
:1017000040F25B732EA23AA101A802F0DBFD03E0D8
:101710004FF4FA7003F042FDC8223CA101A800F08A
:1017200083F80028F4D13BA002F0BCFD21B000BD3D
:1017300041540D0A000000004F4B000041540D0AB7
:101740000D00000043574D4F44450D0A00000000B6
:1017500041542B43574D4F44453D310D0A00000085
:1017600041542B4357444843500D0A0041542B43E6
:1017700057444843503D312C310D0A0043574A41EC
:10178000500D0A003132333435363738000000004E
:101790004E45540041542B43574A41503D22257336
:1017A000222C222573220D0A00000000474F5420EE
:1017B0004950000043495053544152540D0A00000F
:1017C000696F742D30367A30306178646867666B83
:1017D00032346E2E6D7174742E696F746875622E5A
:1017E000616C6979756E63732E636F6D0000000024
:1017F00041542B43495053544152543D2254435079
:10180000222C222573222C25640D0A00434F4E4EB4
:10181000454354004553503832363620496E69747A
:10182000204F4B0D0A0000002DE9F04105460E4601
:1018300014462846FEF7ECFC87B23946284602F0EB
:1018400025FB0FE000F03AF848B931460948FEF7A9
:10185000C3FC20B1FFF7CAFE0020BDE8F0810A20DA
:1018600003F09CFC201EA4F101018CB2EAD10120FE
:10187000F3E700007A1E002030B589B005460C461B
:10188000FFF7B4FE224608A101A802F01BFDC82202
:1018900009A101A8FFF7C8FF18B92146284602F0A0
:1018A000F5FA09B030BD000041542B43495053456F
:1018B0004E443D25640D0A003E0000000A480088A1
:1018C00008B90120704708480088084909888842FB
:1018D00003D1002004490880F4E703480088034945
:1018E00008800120EEE700009E0C0020A00C0020E4
:1018F000044900E0521C11F8013B002BFAD15008BA
:1019000070470000AC0B002010B50446062C22D214
:10191000DFE804F003080D12171C0121084601F04E
:10192000C9FB18E00121022001F0C4FB13E00121F2
:10193000042001F0BFFB0EE00121082001F0BAFBFA
:1019400009E00121102001F0B5FB04E00121202075
:1019500001F0B0FB00BF00BF10BD70B504460D46DE
:1019600016462046FFF7D0FF32462946204600F0B3
:101970005AF8204600F001F870BD3EB504462046F6
:1019800002F0BCF90546062C33D2DFE804F0030B65
:10199000131B232A4FF47A70ADF804004820ADF8E9
:1019A000000026E040F2E730ADF804004720ADF833
:1019B00000001EE04FF47A70ADF804004820ADF846
:1019C000000016E040F2E630ADF804004620ADF825
:1019D00000000EE05920ADF804004F20ADF80000E3
:1019E00007E040F2E730ADF804004720ADF8000012
:1019F00000BF00BF0020ADF80600ADF802008DF872
:101A000008006946284602F027F90121284602F01D
:101A1000F5F801221146284602F013F90021284664
:101A200002F0F2F83EBDF8B506460C4615464FF4F6
:101A3000A06001F0D1F826B1012E06D0022E0CD103
:101A400007E01C208DF8000007E01D208DF8000045
:101A500003E01E208DF8000000BF00BF8DF801409C
:101A60008DF8025001208DF80300684601F07CF8E3
:101A7000F8BD2DE9F0410246002500260020002394
:101A80000024002791F803C00CF00F0591F803C063
:101A90000CF0100CBCF1000F03D091F802C04CEA1E
:101AA000050591F800C0BCF1000F31D0146800208A
:101AB0002BE04FF0010C0CFA00F3B1F800C00CEA77
:101AC00003069E4220D183004FF00F0C0CFA03F75F
:101AD000BC4305FA03FC4CEA040491F803C0BCF1D2
:101AE000280F06D14FF0010C0CFA00FCC2F814C00C
:101AF0000AE091F803C0BCF1480F05D14FF0010C8A
:101B00000CFA00FCC2F810C0401C0828D1D31460A5
:101B1000B1F800C0BCF1FF0F34DD546800202EE0A6
:101B200000F1080C4FF0010808FA0CF3B1F800C0FE
:101B30000CEA03069E4221D183004FF00F0C0CFAF1
:101B400003F7BC4305FA03FC4CEA040491F803C014
:101B5000BCF1280F05D100F1080C08FA0CF8C2F806
:101B6000148091F803C0BCF1480F07D100F1080CB4
:101B70004FF0010808FA0CF8C2F81080401C082841
:101B8000CED35460BDE8F081F0B50A4600230024AE
:101B90000021002500F00046B6F1004F02D11D4E95
:101BA000F16901E01B4E7168C0F3034583B200F494
:101BB0004016B6F5401F08D121F07061154E7668C9
:101BC00026F07066134F7E6012E000F48016B6F5C2
:101BD000801F06D1032606FA05F4A14341F0706187
:101BE00006E0460D360103FA06F6B14341F0706196
:101BF00022B1460D360103FA06F6314300F00046E5
:101C0000B6F1004F02D1034EF16101E0014E716067
:101C1000F0BD0000000001400246002093680B4028
:101C20000BB1012000E00020704741617047016165
:101C3000704700BFFEE7000010B54FF4A06000F051
:101C4000CBFFFFF755FE1E49086003F085FA01221D
:101C500000210220FFF781FE4FF4E13002F0D2FABA
:101C60004FF4E13002F0BEF801F078FF00F06CF8BC
:101C7000FFF79AFAFFF7ACF901F0A6FA03F016F8AD
:101C800000F050F800200F4908600F49C1F8BC016E
:101C90000C49091F086001F06DF8002001F025F8DB
:101CA000002001F030F802E0052003F077FA074940
:101CB000074801F08DFB0128F6D101F011F810BDA5
:101CC000680C0020B001214200002142C40C002019
:101CD000BC0C002010B5044614B101200F49087057
:101CE0000E48007878B101210D48FFF795FF0128D3
:101CF00009D100200949087001210948FFF78CFF2C
:101D0000012808D110BD01210548FFF785FF10B952
:101D10000120024908700020F4E7000018000020AC
:101D20000008014008B50121042001F0D3F9012089
:101D3000ADF8000028208DF8030069460148FFF740
:101D400098FE08BD0008014008B50121082001F0F7
:101D5000C1F91020ADF800008DF8030003208DF8C4
:101D6000020069460348FFF784FE0020024908602C
:101D700008BD0000000C01409081214210B50446CE
:101D8000207B012802D1206802F0B0FA00202060F8
:101D90006060A060207310BD0246002301230DE0A7
:101DA00002F07F000870D2092AB1087840F0800064
:101DB0000870491C01E0184670475B1C042BEFDDDE
:101DC0004FF0FF30F8E7000070B5C0B004464FF4A4
:101DD00080716846FEF7E9F963A0008820804FF41F
:101DE00080716846FEF7E1F960498868FEF7B1FD49
:101DF00005462A460B465EA1684602F063FA69462C
:101E00002046FEF7DDF94FF480716846FEF7CDF904
:101E10005B4882885BA1684602F054FA6946204616
:101E2000FEF7CEF94FF480716846FEF7BEF94F49D0
:101E3000C868FEF78EFD05462A460B4655A1684642
:101E400002F040FA69462046FEF7BAF94FF4807175
:101E50006846FEF7AAF94A48428852A1684602F04D
:101E600031FA69462046FEF7ABF94FF480716846B7
:101E7000FEF79BF94F480068C2B24FA1684602F0D6
:101E800021FA69462046FEF79BF94FF480716846B7
:101E9000FEF78BF93548827C4AA1684602F012FAB7
:101EA00069462046FEF78CF94FF480716846FEF7CC
:101EB0007CF93348C28847A1684602F003FA6946B4
:101EC0002046FEF77DF94FF480716846FEF76DF904
:101ED0002648028A43A1684602F0F4F96946204682
:101EE000FEF76EF94FF480716846FEF75EF92448FC
:101EF000028841A1684602F0E5F969462046FEF7EE
:101F00005FF94FF480716846FEF74FF93F48D0F80B
:101F10003001C2B23EA1684602F0D4F969462046BB
:101F2000FEF74EF94FF480716846FEF73EF90F4810
:101F300042793BA1684602F0C5F969462046FEF7A2
:101F40003FF94FF480716846FEF72FF938A16846D3
:101F500002F0B8F969462046FEF732F92046FEF74E
:101F600057F9C0B240B070BD7B0000007C27002054
:101F70002274656D70223A22252E3166222C0000D3
:101F8000BC0C00202274656D705F76223A222564B5
:101F9000222C00002268756D69223A22252E3166B6
:101FA000222C00002268756D695F76223A22256432
:101FB000222C00003C012142226C6564223A222539
:101FC00064222C00226C69676874223A22256422FC
:101FD0002C000000226C696768745F76223A222523
:101FE00064222C0022736F696C5F68756D69223AF8
:101FF000222564222C00000022736F696C5F6875D3
:102000006D695F76223A222564222C00000021426D
:102010002270756D70223A222564222C0000000087
:1020200022666C616765223A222564220000000066
:102030007D00000070B504460E460025206898B962
:1020400001202073304602F07FF920602068E0B163
:1020500000206060A66003E00020216848556D1CE8
:10206000A068A842F8D810E00220207303E0002006
:10207000216848556D1CA068A842F8D8002060600F
:10208000A068B04201D20020206070BD2DE9FF5F42
:1020900007460D4690463846FEF7BAF886B22846FF
:1020A000FEF7B6F81FFA80FA4FF00009B01D02F0F3
:1020B0004BF904461CB9012004B0BDE8F09FB11DE6
:1020C0002046FEF772F812A0016821608088A08087
:1020D000324639462046FEF7B0F82846FEF798F813
:1020E00083460120002100915B462A46CDE9020883
:1020F000019121460A2000F05FF910B94FF0000964
:1021000001E04FF00109204602F0F0F84846D3E71D
:1021100024637273702F00002DE9FF4F83B0824655
:102120008B469146159C0025002002900F270190B8
:102130004846FEF76DF80FFA80F8B9F1000F03D1A9
:10214000012007B0BDE8F08F08F10200384487B2E3
:10215000109808B145F00205129878B145F00405D1
:102160001298FEF755F8C0B202901398FEF750F897
:1021700001460298001D0844384487B2119820B1E6
:10218000012804D0022808D104E000BF07E045F090
:102190000C0504E045F0140501E00220D1E700BF82
:1021A000149808B145F02405BAF1000F02D0BBF134
:1021B000000F01D10320C4E745F0C0055046FEF7EB
:1021C00027F806465846FEF723F83044001D3844E9
:1021D00087B239462046FFF72DFF206808B9042052
:1021E000AFE739462068FDF7E0FF10216268501C18
:1021F000606020688154D4E90023D118781FFFF76C
:10220000CBFD00B201900198002804DA2046FFF7C8
:10221000B5FD052095E761680198084460600021DC
:102220006268501C60602068815404216268501C00
:102230006060206881544D216268501C6060206895
:10224000815451216268501C60602068815454217F
:102250006268501C6060206881546268501C606035
:102260002068815404216268501C60602068815499
:102270006168481C6060206845540698010A6268DD
:10228000501C6060206881540698C1B26268501C7E
:10229000606020688154C8F307216268501C606048
:1022A000206881546268501C6060206800F80280D9
:1022B000D4E90012881842464946FDF7BEFF60681F
:1022C0004044606005F00400B8B30026139808B9D4
:1022D00038A013901298FDF79BFF86B2310A62680E
:1022E000501C6060206881546268501C60602068E7
:1022F0008654D4E90012881832461299FDF79DFFE2
:102300006068304460601398FDF782FF86B2310A3E
:102310006268501C6060206881546268501C606074
:1023200020688654D4E90012881832461399FDF7C4
:1023300084FF60683044606000BF05F08000C8B171
:102340005046FDF765FF86B2310A6268501C606036
:10235000206881546268501C606020688654D4E90B
:102360000012881832465146FDF767FF6068304416
:10237000606000BF05F04000C8B15846FDF748FF57
:1023800086B2310A6268501C6060206881546268BD
:10239000501C606020688654D4E9001288183246C8
:1023A0005946FDF74AFF60683044606000BF002076
:1023B000C7E60000000000002DE9FF4F83B0834610
:1023C00090469946139C002600250020029001901B
:1023D0000027BBF1000F03D1012007B0BDE8F08F4B
:1023E00000250AE00498405D232803D00498405D4E
:1023F0002B2801D10220F0E76D1C0498405D0028D5
:10240000F0D147F03007119808B147F0010705EB0C
:102410000900861C109820B1012804D002280AD196
:1024200005E000BF09E047F00207B61C05E047F0F1
:102430000407B61C01E00320CFE700BF98F80000B6
:10244000022822D14FF0000A00BF50460AF1010ACB
:1024500018F800007D28F8D1AAF1030A0AF1070054
:1024600002900298A9EB000AF01CA0EB0A0120469A
:10247000FFF7E0FD206808B90420AEE7F21CA2EBEC
:102480000A012068FDF791FE0BE0F11C2046FFF7E2
:10249000D1FD206808B904209FE7F11C2068FDF7F2
:1024A00084FE6168481C606020684754D4E90002DB
:1024B00081183046FFF770FC01900198002804DA7B
:1024C0002046FFF75BFC052087E761680198084418
:1024D0006060C5F307216268501C60602068815409
:1024E0006268501C606020688554D4E90012881826
:1024F0002A460499FDF7A1FE6068284460601098A0
:1025000060B14FEA1B216268501C606020688154F2
:102510006268501C6060206800F802B0B8F1000FDB
:1025200019D098F8000002280BD1D4E900128818BD
:102530004146029AFDF720FE6168029808446060F7
:1025400009E0D4E9001288184A464146FDF714FE16
:1025500060684844606000203FE770B505460C465F
:1025600004212046FFF766FD206808B9012070BDF0
:1025700040216268501C60602068815402216268BA
:10258000501C60602068815429126268501C606091
:10259000206881546268501C606020688554002067
:1025A000E5E770B505460C4604212046FFF742FDDD
:1025B000206808B9012070BD70216268501C6060FD
:1025C0002068815402216268501C60602068815438
:1025D00029126268501C6060206881546268501C37
:1025E0006060206885540020E5E770B505460C461C
:1025F00004212046FFF71EFD206808B9012070BDA8
:1026000050216268501C6060206881540221626819
:10261000501C60602068815429126268501C606000
:10262000206881546268501C6060206885540020D6
:10263000E5E770B505460C4604212046FFF7FAFC95
:10264000206808B9012070BD62216268501C60607A
:102650002068815402216268501C606020688154A7
:1026600029126268501C6060206881546268501CA6
:102670006060206885540020E5E72DE9FF5F804613
:10268000174699460E9C0026B246B3460025B8F17F
:10269000000F03D1012004B0BDE8F09F0BE057F814
:1026A000250008B90220F6E757F82500FDF7B0FD30
:1026B0000644681CC5B24D45F1DB09EB4900801C9E
:1026C00000EB060A0AF105012046FFF7B3FC20687B
:1026D00008B90320DFE782216268501C606020682F
:1026E0008154D4E9000281185046FFF755FB0FFAD8
:1026F00080FBBBF1000F04DA2046FFF73FFB04200C
:10270000C9E76068584460604FEA18216268501C4D
:102710006060206881546268501C6060206800F826
:102720000280002524E057F82500FDF771FD0646DC
:10273000C6F307216268501C60602068815462689B
:10274000501C606020688654D4E90023D01857F8E4
:1027500025103246FDF771FD6068304460600198D5
:10276000C1B26268501C606020688154681CC5B2A8
:102770004D45D8DB00208EE7F0B504460D462646D1
:10278000012300201060002114E0775C07F07F0730
:10279000106807FB03001060705C00F0800008B94F
:1027A000481CF0BDDB01B3F5001F02D36FF0010040
:1027B000F7E7491CA942E8DB4FF0FF30F1E72DE9CC
:1027C000F84380460C4615461E462F2108F10600A8
:1027D000FDF714FD07460020009017B90120BDE861
:1027E000F8837F1C6A46042108F10100FFF7C4FF4B
:1027F000252001F0A9FD2060206808B90220EEE73D
:1028000025212068FDF7D1FC242239462068FDF7F8
:10281000B3FC243700982C3830803188481C01F0F4
:1028200093FD2860286820B9206801F05FFD03202F
:10283000D5E73288511C2868FDF7B7FC3288394645
:102840002868FDF799FC0020C9E70146487802286E
:1028500001D001207047887810B18878012801D113
:10286000C878F7E7FF20F5E72DE9FC5F81460D46C4
:1028700014461E46DDE90C8B99F8000000F00F0AA3
:10288000002001900AF008000090CAF341008BF884
:10289000000001AA042109F10100FFF76DFF48447F
:1028A000471C0198022802D30AF0010010B1FF2052
:1028B000BDE8FC9F7878397840EA012020802088A4
:1028C000801C0199884201D9FF20F1E754A1B81C6E
:1028D000FDF782FC08B10F20EAE79BF8000020B169
:1028E00001283DD0022877D13BE0009808B1FF20B5
:1028F000DEE72188481C01F027FD2860286808B918
:10290000FF20D5E72288511C2868FDF74EFC22885D
:10291000B91C2868FDF730FC0198801E2188401AF8
:10292000A8F80000B8F80010481C01F00DFD306058
:10293000306820B9286801F0D9FCFF20B8E7B8F862
:102940000020511C3068FDF730FCB8F80020B4F8C6
:1029500000C0BB1C0CEB03013068FDF70DFC4FE021
:1029600000BF2088801C0199884201D9FF209FE781
:102970002088C01C395C2088801C385C41EA00211A
:102980000E9801800E9808B9FF2091E72188481C15
:1029900001F0DAFC2860286808B9FF2088E722885F
:1029A000511C2868FDF701FC2288B91C2868FDF736
:1029B000E3FB0198001F2188401AA8F80000B8F82E
:1029C0000010481C01F0C0FC3060306828B928684D
:1029D00001F08CFCFF206BE710E0B8F80020511CE0
:1029E0003068FDF7E2FBB8F80020B4F800C03B1DEA
:1029F0000CEB03013068FDF7BFFB01E0FF2057E758
:102A000000BF2B212846FDF7F9FB20B923212846DA
:102A1000FDF7F4FB08B1FF204AE7002048E700007B
:102A2000246372657100000001464878022801D0D5
:102A300001207047887820B9C8780A2801D1002081
:102A4000F7E70120F5E701464878022801D0012088
:102A50007047887820B9C8780A2801D10020F7E7A4
:102A60000120F5E701464878022801D0012070478F
:102A7000887820B9C8780A2801D10020F7E701201A
:102A8000F5E702465078022801D00120704790787F
:102A9000B0EB112F05D1D078CBB2984201D10020F4
:102AA000F4E70120F2E70000F8B50446FF2720789C
:102AB0000511012D01DB0E2D01DD3846F8BD032D7A
:102AC00024D1002000906A460421601CFFF754FEC8
:102AD0002044461C0098022803D3207800F001000F
:102AE00008B1FF20EAE77078317840EA0120801CC5
:102AF0000099884201D9FF20E0E706A1B01CFDF74C
:102B00006BFB08B10F2700E0032700E02F46384693
:102B1000D4E7000024637265710000000146FF20C5
:102B20008A78A2B9CA78142A11D10A7932B1012A55
:102B300005D0022A04D0802A06D103E000BF00BFDE
:102B4000002003E0012001E0022000BF00BF704729
:102B5000014601208A781AB9CA781E2A00D10020BD
:102B6000704700BFFEE7704770B5002100230F22B9
:102B7000C47804B3154C246804F4E064C4F5E0643C
:102B8000210AC1F10403CA40447804FA03F18478AD
:102B90001440214309010E4C0678A155047804F035
:102BA0001F050124AC4005786D11AD0005F1E0254D
:102BB000C5F8004109E0047804F01F050124AC4089
:102BC000044D0678761145F8264070BD0CED00E006
:102BD00000E400E080E100E002490143024A1160A4
:102BE000704700000000FA050CED00E010B500F0A1
:102BF00077F821A1244801F065FB234A002108460B
:102C000000F046F921A222A11F4801F05BFB1E4AF9
:102C10000221002000F03CF922A225A11A4801F06F
:102C200051FB194A0421002000F032F925A1164871
:102C300001F048FB144A0621002000F029F9FEF7B4
:102C40000BFD03E04FF4967002F0A8FAFEF7B4FB18
:102C50000028F7D103E04FF4967002F09FFA0121AB
:102C60001D4800F0A7FE0028F5D13C201B49087044
:102C700000F036F810BD00002DC7EBB4F2BFAA5724
:102C8000494649C8C8B5E3001C1500204E4554000C
:102C90002DC3FBB3C63A25732020202020202020FE
:102CA0002000000031323334353637380000000060
:102CB0002DC3DCC2EB3A25732020202020202020C9
:102CC000200000002DC6B5C2CA3A20322E3420475B
:102CD000487A20202000000000000020B80C0020CE
:102CE00010B5002000F025F810BD10B504461CB941
:102CF0000021A62000F07EF9012C03D10021A7209D
:102D000000F078F910BD10B504463CB90021C82088
:102D100000F070F90021A12000F06CF9012C07D11E
:102D20000021C02000F066F90021A02000F062F927
:102D300010BD70B50646002419E004F1B001C8B218
:102D4000002100F057F90021084600F053F9002156
:102D5000102000F04FF9002505E00121304600F079
:102D600049F9681CC5B2822DF7DB601CC4B2082C7F
:102D7000E3DB70BD08B50121082000F0ABF94FF48A
:102D80004C50ADF8000010208DF8030003208DF8A2
:102D9000020069463D48FEF76CFE4FF44C513B483B
:102DA000FEF745FF0021AE2000F024F9002108467F
:102DB00000F020F90021102000F01CF90021402033
:102DC00000F018F90021812000F014F90021CF2033
:102DD00000F010F90021A12000F00CF90021C8201A
:102DE00000F008F90021A62000F004F90021A82035
:102DF00000F000F900213F2000F0FCF80021D32072
:102E000000F0F8F80021084600F0F4F80021D52081
:102E100000F0F0F80021802000F0ECF80021D9202B
:102E200000F0E8F80021F12000F0E4F80021DA20B9
:102E300000F0E0F80021122000F0DCF80021DB2097
:102E400000F0D8F80021402000F0D4F80021202024
:102E500000F0D0F80021022000F0CCF800218D20F5
:102E600000F0C8F80021142000F0C4F80021A420CC
:102E700000F0C0F80021A62000F0BCF80021AF202F
:102E800000F0B8F8FFF72CFF08BD0000000C01406F
:102E90002DE9F047074688461646002584E030783D
:102EA000A02845DD00253CE0702F04DD002708F157
:102EB000020000F0FF0830783E4911F815108842F2
:102EC0002ED17078012101EB45013A4A515C8842CC
:102ED00026D14146384600F077F8002407E004EB9D
:102EE0004511354A505C012100F084F8641C102C17
:102EF000F5D308F10100C1B2384600F065F80024AE
:102F000008E004EB451110312B4A505C012100F020
:102F100071F8641C102CF4D307F11000C7B204E060
:102F20006D1C264800688542BED300BFB61C3BE03E
:102F30007A2F04DD002708F1020000F0FF08317845
:102F40001F48FDF75BF98146B9F1000F2BD04146D0
:102F5000384600F039F800240AE099F800102039CA
:102F600004EB0111174A505C012100F043F8641C86
:102F7000082CF2D308F10100C1B2384600F024F861
:102F800000240BE099F80010203904EB01110831FE
:102F90000C4A505C012100F02DF8641C082CF1D380
:102FA00007F10800C7B2761C307800287FF477AFAD
:102FB000BDE8F087AC0B00200C060020680C002058
:102FC000070C00201C00002070B504460D4605F1DA
:102FD000B001C8B2002100F00DF8102141EA141030
:102FE000002100F007F804F00F00002100F002F8C3
:102FF00070BD000070B504460E462EB14FF48051EE
:103000001C48FEF714FE04E04FF480511948FEF707
:103010000CFE4FF400511748FEF707FE00251BE099
:103020004FF480711348FEF700FE04F0800028B1D1
:103030004FF400710F48FEF7FAFD04E04FF4007101
:103040000C48FEF7F2FD4FF480710A48FEF7EFFDE1
:103050006006040E681CC5B2082DE1DB4FF4005178
:103060000448FEF7E4FD4FF480510248FEF7DFFD0F
:1030700070BD0000000C01407047000001460020B8
:10308000034A506820F440400843506070470000F5
:103090000010024029B1064A52690243044B5A61AA
:1030A00004E0034A52698243014B5A6170470000B1
:1030B0000010024029B1064AD2690243044BDA618A
:1030C00004E0034AD2698243014BDA617047000091
:1030D0000010024029B1064A92690243044B9A61EA
:1030E00004E0034A92698243014B9A6170470000F1
:1030F0000010024030B500210022002400232D4D95
:103100006D6805F00C0121B1042905D0082923D1EF
:1031100005E0294D056022E0274D05601FE0254DA3
:103120006D6805F47012234D6D6805F48034022536
:1031300005EB92421CB9214D554305600BE01D4D36
:103140006D6805F400351DB11C4D5543056002E066
:10315000194D5543056002E0174D056000BF00BFE3
:10316000144D6D6805F0F0010909154D6B5C05689B
:10317000DD4045600F4D6D6805F4E061090A104DB2
:103180006B5C4568DD4085600A4D6D6805F46051F3
:10319000C90A0B4D6B5C4568DD40C560054D6D6827
:1031A00005F44041890B074D6B5CC568B5FBF3F531
:1031B000056130BD0010024000127A0000093D0098
:1031C0008A0C00209A0C002008B501210420FFF78A
:1031D00081FF4FF48050ADF8000010208DF80300FF
:1031E00003208DF8020069461448FEF742FC4FF4B4
:1031F0000040ADF8000010208DF8030003208DF88A
:10320000020069460D48FEF734FC4FF40060ADF84B
:10321000000069460948FEF72CFC4FF4006107489E
:10322000FEF703FD4FF480510448FEF700FD4FF414
:1032300000410248FEF7FBFC08BD00000008014009
:1032400070B50025002424E000BF10211348FEF7CC
:10325000E3FC0028F9D0282001F0C6FF10210F4818
:10326000FEF7DAFC01280DD100BF10210B48FEF754
:10327000D3FC0128F9D0C4F1070101208840C0B275
:10328000054304E0C4F10701012088408543601C28
:10329000C4B2082CD8DB284670BD000000080140ED
:1032A00010B50446FDF7A6FF10212448FEF7BDFC2B
:1032B000122001F073FF10212048FEF7B8FC1E20F9
:1032C00001F092FFFDF788FF10211C48FEF7A4FCD7
:1032D00080BB00BF10211948FEF79EFC0028F9D0E2
:1032E00000BF10211548FEF797FC0128F9D0FFF721
:1032F000A7FF2070FFF7A4FF6070FFF7A1FFA07089
:10330000FFF79EFFE070FFF79BFF2071FDF772FF54
:1033100010210A48FEF78BFC207861780844A178D8
:103320000844E17808442179884201D1012010BD88
:103330000020FCE7FFE70020F9E70000000801405B
:103340002DE9FC4782461F48FFF7AAFF1D49C878B0
:10335000FDF7D3FA06461C4A1C4BFDF7E8F9044674
:103360000D4618498878FDF7C8FA804622462B4654
:10337000FDF736F9CDE90001FDF72EFBCAF808008C
:1033800010494878FDF7B9FA06460F4A0F4BFDF78A
:10339000CEF904460D460B490878FDF7AEFA804693
:1033A00022462B46FDF71CF9CDE90001FDF714FB81
:1033B000CAF80C0000F0F2FAAAF810000120BDE8EB
:1033C000FC870000C50C00207B14AE47E17A843FE7
:1033D0000246412050801C2090805A2010804620B8
:1033E000D0800020087001207047000070B58CB0BC
:1033F00006460020089009900A900B9007900690CE
:10340000059004900024039000253046FFF74CFB04
:103410000446E01E0D2870D2DFE800F028707B9390
:10342000ADCDB5CDC1CDCDCD070004AB07AA06A962
:103430003046FFF7C4F90546BDB9BDF810306BA0A2
:10344000DDE9061200F02EFF08AADDE90601FEF70D
:103450001DFE50B96EA000F025FF099A91B20898A0
:10346000FEF70AFA08A8FEF789FCA7E06E4803A950
:1034700004AA07ABCDE90021029005AA06A93046AF
:10348000FFF7F2F90546002D36D1BDF81000009087
:10349000BDF8142065A0DDE9061300F003FF9DF8D8
:1034A0000C00012802D0022824D111E008A95E48AE
:1034B0000088FFF752F850B96BA000F0F3FE099AAC
:1034C00091B20898FEF7D8F908A8FEF757FC12E069
:1034D00008A955480088FFF788F850B968A000F09F
:1034E000E1FE099A91B20898FEF7C6F908A8FEF71E
:1034F00045FC00E000BF00BF60E05CE03046FFF745
:1035000093FA10B964A000F0CDFE3C206A4908701F
:1035100054E03046FFF7A6FA90B968A000F0C2FE6A
:1035200008A90A20FFF785F850B96AA000F0BAFE92
:10353000099A91B20898FEF79FF908A8FEF71EFCB9
:103540003CE0394801883046FFF79BFA90B967A004
:1035500000F0A8FE08A90A20FFF723F850B969A0D7
:1035600000F0A0FE099A91B20898FEF785F908A824
:10357000FEF704FC22E03046FFF765FA10B968A0B8
:1035800000F090FE1AE03046FFF7C8FA18B96AA0BA
:1035900000F088FE02E06FA000F084FE0EE03046EE
:1035A000FFF7D6FA18B972A000F07CFE02E077A00F
:1035B00000F078FE02E04FF0FF3500BF00BFFEF7DD
:1035C00015F8681C08B90CB070BD079810B10798C1
:1035D00001F0ACFF0F2C01D0032C05D1069800F0B0
:1035E00085FE079800F082FE00BFECE7636D64691A
:1035F000643A2025732C207265713A2025732C20A3
:103600007265715F6C656E3A2025640D0A000000DA
:10361000546970733A0953656E6420436D64526552
:1036200073700D0A00000000BA0C0020746F7069FE
:10363000633A2025732C20746F7069635F6C656E2C
:103640003A2025642C207061796C6F61643A2025E2
:10365000732C207061796C6F61645F6C656E3A20C9
:1036600025640D0A00000000546970733A0953651F
:103670006E64205075626C69736841636B0D0A005B
:10368000546970733A0953656E64205075626C69B1
:1036900073685265630D0A00546970733A094D519D
:1036A0005454205075626C6973682053656E6420B1
:1036B0004F4B0D0A00000000B80C002054697073D5
:1036C0003A09526576205075626C69736852656379
:1036D0000D0A0000546970733A0953656E642050F6
:1036E00075626C69736852656C0D0A005469707379
:1036F0003A09526576205075626C69736852656C40
:103700000D0A0000546970733A0953656E642050C5
:1037100075626C697368436F6D700D0A000000007C
:10372000546970733A09526576205075626C6973FA
:1037300068436F6D700D0A00546970733A094D51FA
:10374000545420537562736372696265204F4B0D48
:103750000A000000546970733A094D5154542053C3
:103760007562736372696265204572720D0A0000AA
:10377000546970733A094D51545420556E53756213
:10378000736372696265204F4B0D0A005469707350
:103790003A094D51545420556E53756273637269E2
:1037A0006265204572720D0A00000000704700003B
:1037B00030B5C9B0044600204590469047904890E7
:1037C00000254FF4807105A8FCF7EFFC012C04D113
:1037D00005A8FEF7F9FA054600E000BF00BFCDB12D
:1037E00045A801210022CDE900122B4605AACDE90A
:1037F000021009A10A20FEF7DFFD40B9469A91B2F6
:103800004598FEF739F845A8FEF7B8FA02E00AA095
:1038100000F048FD49B030BD2F62726F6164636192
:1038200073742F6839736A7375566C6647732F7497
:1038300065737432000000005741524E0D0A0000BB
:1038400010B500F001F810BD0CB5002001900090FB
:103850003348006840F480303149086000BF304888
:10386000006800F4003000900198401C019000981E
:1038700018B90198B0F5A06FF1D12948006800F49B
:10388000003010B10120009001E00020009000986D
:10389000012843D12348006840F010002149086006
:1038A0000846006820F0030008600846006840F001
:1038B000020008601A484068194948600846406894
:1038C00048600846406840F48060486008464068A8
:1038D00020F47C1048600846406840F4E8104860D6
:1038E0000846006840F08070086000BF0C4800681F
:1038F00000F000700028F9D00948406820F003006B
:10390000074948600846406840F00200486000BF30
:103910000348406800F00C000828F9D10CBD0000F5
:10392000001002400020024010B5044601F0D8F912
:10393000462001F0C3FA204601F0C0FA01F0FEF97A
:1039400010BD000010B501234FF47A720D490E48E6
:1039500002F03CFA012364220C490D4802F036FAC9
:10396000012340F6B8320B490B4802F02FFA064803
:1039700002F05CFA064802F059FA074802F056FADB
:1039800010BD0000855D0008EC1400208D5D00086E
:10399000FC140020B95D00080C15002004490988BA
:1039A000142291FBF2F1C1F1D20188B270470000FC
:1039B0006C0C0020F0B585B004460D4600260020B2
:1039C000019002900390049006E054F826101FA086
:1039D00000F068FC701CC6B2AE42F6DB01A82B46B4
:1039E0002246022100901420FEF747FE00282BD12A
:1039F000029A91B20198FDF73FFF4FF4FA70FDF77C
:103A000003FE07463846FFF74FF809280AD115A0EC
:103A100000F048FC01A8FEF7B1F900201849C87071
:103A200005B0F0BD17A000F03DFC01A8FEF7A6F917
:103A30001348C078401CC0B21149C870022801DD8B
:103A400000F044F80120EBE70120E9E753756273C9
:103A5000637269626520546F7069633A2025730D43
:103A60000A000000546970733A094D5154542053B0
:103A70007562736372696265204F4B0D0A00000026
:103A80007C270020546970733A094D5154542053D7
:103A90007562736372696265204572720D0A000077
:103AA000042808D14FF0E021096941F004014FF0EA
:103AB000E022116107E04FF0E021096921F00401E3
:103AC0004FF0E0221161704770470000012080F341
:103AD000138800BF00BF0748006800F4E060064993
:103AE0000843001D03490860BFF34F8F00BF00BFAC
:103AF000FEE700000CED00E00000FA0510B51348E9
:103B0000006840F00100114908600846406810490B
:103B100008400E494860084600680E4908400B49B5
:103B200008600846006820F4802008600846406865
:103B300020F4FE0048604FF41F008860FFF780FE0D
:103B40004FF000600449086010BD00000010024002
:103B50000000FFF8FFFFF6FE08ED00E010B50121C0
:103B60000820FFF7B7FA01210846FFF7B3FA012151
:103B70000348FEF709F801210248FEF705F810BDD9
:103B8000000430000002300010B50121174800F099
:103B900047F850B316480068401C1549086002F009
:103BA0006DF9134800681921B0FBF1F201FB120016
:103BB00010B900200F4908700D4800684FF47A7161
:103BC000B0FBF1F201FB120058B90020084908606F
:103BD00009480078002804DD07480078401E06499F
:103BE00008700121014800F00CF810BD00080040E9
:103BF000D40C0020D80C0020B80C0020CA4302824C
:103C00007047CA430282704721B1028842F0010224
:103C1000028004E002884FF6FE731A40028070476B
:103C200030B50246002000230024158A05EA01036E
:103C3000958905EA010413B10CB1012000E00020D0
:103C400030BD1AB183890B43838102E083898B43A2
:103C50008381704781877047002202881D4B9842FC
:103C60000ED01D4B98420BD0B0F1804F08D01B4BAB
:103C7000984205D01A4B984202D01A4B984204D170
:103C80004FF68F731A404B881A43174B984207D050
:103C9000164B984204D04FF6FF431A40CB881A4384
:103CA00002808B8883850B8803850A4B98420BD052
:103CB000094B984208D00E4B984205D00D4B9842C4
:103CC00002D00D4B984201D10B7A038601238382E7
:103CD00070470000002C0140003401400004004007
:103CE00000080040000C004000100040001400409C
:103CF00000400140004401400048014001460229C3
:103D000001D1024800BF00BF70470000000800401A
:103D100010B540F225511D4800F0F2F810B31B48D1
:103D200000F0AAF9C4B21A48008800F40040C8B9EB
:103D30001748008800F4804060B10A2C03D00020AE
:103D40001349088020E01248008840F400401049E0
:103D5000088019E00D2C06D10D48008840F4804001
:103D60000B49088010E00A480088C0F30D0009499B
:103D70000C5407480088401C054908800846008804
:103D8000C72801DD0020088010BD00000038014078
:103D9000880C00204E15002010B540F225510E4829
:103DA00000F0AEF8B0B10D480088FF2802D900201D
:103DB0000A4908800848001D0088C1B207480288E7
:103DC0000088401C054B188005488154202102487A
:103DD00000F074F810BD0000004400409E0C00206C
:103DE0007A1E002010B586B0044601210420FFF79A
:103DF00071F901214804FFF75DF918208DF81700CB
:103E00000420ADF8140003208DF8160005A91D4804
:103E1000FDF72FFE04208DF817000820ADF81400E0
:103E200003208DF8160005A91648FDF722FE01941F
:103E30000020ADF810000C20ADF80E000020ADF809
:103E40000C00ADF80A00ADF8080001A90E4800F01A
:103E5000A7F801210C4800F03AF8012240F2255160
:103E6000094800F077F826208DF8000001208DF831
:103E700003008DF801008DF802006846FEF774FE1D
:103E800006B010BD000801400044004070B5044673
:103E90000D4600260DE014F8011B074800F0F1F86C
:103EA00000BF4021044800F01EF80028F9D0701C23
:103EB00086B2AE42EFDB70BD0044004001F40072F8
:103EC000B2F5007F00D100BFCA430280704721B124
:103ED000828942F40052828104E082894DF6FF73A8
:103EE0001A408281704702460020B1F5007F00D160
:103EF00000BF13880B400BB1012000E00020704789
:103F000070B50246002400230025002040F66A1602
:103F1000B14200D100BFC1F3421501F01F030126D9
:103F200006FA03F3012D02D19689334006E0022DF3
:103F300002D1168A334001E0968A33400C120126E2
:103F400006FA04F41688344013B10CB1012000E0E5
:103F5000002070BDF0B50346002400260025002097
:103F600040F66A17B94200D100BF1846C1F34214A7
:103F700001F01F06012707FA06F5012C01D10C30CC
:103F800004E0022C01D1103000E014301AB10768AF
:103F90002F43076002E00768AF430760F0BD0000F1
:103FA0002DE9F04786B005460E460024A24600BF24
:103FB000A1460027B08900B100BF2F462C8A4CF6DD
:103FC000FF700440F08804432C82AC894EF6F31055
:103FD0000440B08831890843718908430443AC81A7
:103FE000AC8A4FF6FF400440B0890443AC8201A87C
:103FF000FFF780F81F48874202D1DDF810A001E0EA
:10400000DDF80CA0A88900F4004040B10AEBCA001A
:1040100000EB0A1031684900B0FBF1F807E00AEB49
:10402000CA0000EB0A1031688900B0FBF1F8642087
:10403000B8FBF0F004012009642101FB1089A88974
:1040400000F4004040B1322000EBC900B0FBF1F0B9
:1040500000F00700044308E0322000EB091064215F
:10406000B0FBF1F000F00F0004432C8106B0BDE876
:10407000F08700000038014001468888C0F308003E
:104080007047C1F3080282807047000010B52E48C7
:10409000008A2E490988884215DB2C498888FCF75C
:1040A00027FC0446284881682046FCF7B1FC0AD367
:1040B00026494888FCF71CFC04462348C168204672
:1040C000FCF7A6FC06D222480068C0432149C1F88B
:1040D000AC0102E000201E4908601B48008A1B4911
:1040E0000988884202DB1C48007820B10120184969
:1040F000091D086003E000201549091D08601248E9
:10410000807C1249C988884204DA012010491031A4
:10411000086003E000200E49103108600A4800786A
:1041200078B109480078012802D0022805D103E0BF
:104130000120FFF73DFB00E000BF00BF0020024967
:104140000870012010BD00007C270020BC0C00205E
:10415000AC01214200002142C40C0020F0B58FB018
:104160001849C868FCF7F5FB04460D4615498868F0
:10417000FCF7EFFB064632460B4613A102A8CDE939
:10418000004500F09FF802AA00210846FEF780FED5
:104190000C48028A11A102A800F094F802AA022198
:1041A0000020FEF775FE07484379827C10A102A823
:1041B00000F088F802AA04210020FEF769FE012021
:1041C0000FB0F0BD7C270020543A252E3166202008
:1041D000483A252E3166202000000000CDC1C8C01D
:1041E000CAAAB6C83A20256420202020000000007A
:1041F000B9E2D5D53A20253033642020256420004B
:1042000000BFFEE710B586B00446012144F2040069
:10421000FEF760FF4FF40070ADF8140003208DF836
:10422000160018208DF8170005A91C48FDF721FC81
:104230004FF48060ADF8140004208DF8170005A934
:104240001648FDF716FC25208DF8000003208DF898
:1042500001008DF8020001208DF803006846FEF78A
:1042600083FC01940020ADF80800ADF80A00ADF819
:104270000C00ADF810000C20ADF80E0001A90848A4
:10428000FFF78EFE012240F225510548FFF762FE3E
:1042900001210348FFF71BFE06B010BD00080140D6
:1042A000003801400FB4054B10B503A9044A029829
:1042B00000F04CF910BC5DF814FB0000355200080A
:1042C000840C00200FB4084B10B504A902AA03986F
:1042D00000F03CF9044602A9002000F0BAFC204698
:1042E00010BC5DF814FB0000534C000830B528B139
:1042F000144C031F002021680A4605E0084630BD23
:104300009A4203D810465268002AF9D1002800D0FA
:1043100041680BD00468A3EB0005A54204D11B68DB
:104320001C440346046002E0436000E023603AB1AD
:104330001C68D51AA54203D115682C441C6052682C
:104340005A6030BDE40C00202DE9F04782460F4C46
:1043500010480D4E0E4F001B4FF0000820F00705CF
:104360004FF0010900221146504601F093F8002851
:1043700002D1306810B10020BDE8F0873C60C4E98C
:104380000058C6F80090EDE7E80C002094270020C4
:10439000E40C00209033002002E008C8121F08C17E
:1043A000002AFAD170477047002001E001C1121FB6
:1043B000002AFBD1704700002DE9FF5F82B0002189
:1043C000DDE90430020DDDF840B0034318D044F6B7
:1043D0001050A2F2FF3242431514119801281FD049
:1043E000A5EB0B00401C5FEA000A4FF000064E4FA1
:1043F000DFF83891B046504615D5CAF1000413E0F5
:10440000119801244AA3012801D16FEA0B010298F7
:10441000119AC0E90031C0E9024206B0BDE8F09F40
:10442000CBF10000DFE704460021404A491842EB87
:104430000450CDE9001012E0E00707D032463B46B9
:1044400040464946FCF773F98046894632463B466A
:1044500010461946FCF76BF906460F466410002C0F
:10446000EAD1DDE90401DDE90023BAF1000F06DA43
:10447000FCF75DF942464B46FCF759F905E0FCF7BD
:10448000C8F942464B46FCF7C4F904460E460022E2
:10449000284BFCF789FA03D84FF0FF30014607E0BC
:1044A0000022254B20463146FCF79AF8FCF74AFCDF
:1044B000102409E0002C0ADB0A220023FCF7D2FAC0
:1044C000039B30321A55641E50EA0102F2D1641C7B
:1044D000039AC4F111031444119A012A03D0012252
:1044E00008430DD10AE0084304D000204FF0110B1F
:1044F000119072E7A3EB0B056D1E0DE05B4504DD2B
:104500004FF0000205F1010504E003DA4FF000026C
:10451000A5F10105002AECD002981199C0E90231F9
:10452000C0E9004579E70000000014400000F03FBA
:10453000300000000000F0430000E03F30380A285F
:1045400001D2012070470020704700002DE9FF4F85
:1045500095B09A46884606460025EEE1252877D193
:1045600000242746F94A0121039400E0044316F889
:10457000013F203B01FA03F01042F7D130782A289E
:1045800011D06FF02F033078A0F13002092A16D82D
:10459000039A44F0020402EB820203EB420210444D
:1045A000761C0390EFE758F8042B0392002A03DAF5
:1045B000504244F40054039044F00204761C3078D6
:1045C0002E2816D116F8010F44F004042A280DD025
:1045D0006FF02F023078A0F13003092B09D807EBD8
:1045E000870302EB4303C718761CF3E758F8047BF4
:1045F000761C30786C280FD006DC4C2817D0682841
:104600000DD06A2814D104E0742810D07A280FD174
:104610000DE044F400140AE044F4801401E044F492
:1046200040147278824202D104F58014761C761C04
:10463000307866280BD013DC582877D009DC0028A6
:1046400075D04528F6D04628F4D047281AD193E1F2
:1046500018E0632835D0642879D0652812D18BE121
:10466000702873D008DC6728F1D069286FD06E28D5
:104670000DD06F2806D1ACE073282CD0752874D0EB
:10468000782853D05246179990476D1C54E1C4F3D3
:104690000250022809D003280DD0D8F800100428B1
:1046A0000DD00D6008F1040846E1D8F80010EA17B3
:1046B000C1E90052F6E7D8F800100D80F2E70D705E
:1046C000F0E718F8041B8DF8001000208DF80100A9
:1046D000EB46012003E058F804BB4FF0FF306107C0
:1046E0004FF0000102D40DE009F101018946B94201
:1046F0000FDA8145F8DB1BF809100029F4D108E036
:1047000009F1010189468142FADB1BF809100029F1
:10471000F6D103985346A0EB090721463846179A6D
:1047200000F080FA284400EB090507E044E008E1C6
:104730000DE01BF8010B524617999047B9F101099A
:10474000F7D2534621463846179AF2E039E00A215B
:10475000C4F302524FF0000B0091022A06D058F821
:10476000040BC117032A09D00AE023E008F107006F
:1047700020F00702F2E80201904605E000B2C117FE
:10478000042A01D140B2C117002906DA0A460021E5
:10479000404261EB02012D2202E0220504D52B22CA
:1047A0008DF80420012203E0E20701D02022F7E780
:1047B000914657E00A2100E010214FF0000B0091D4
:1047C0000BE010214FF0000B44F004040827009187
:1047D00003E008204FF0000B0090C4F30252022ABD
:1047E00005D058F8040B0021032A08D008E008F18E
:1047F000070020F00702F2E80201904603E080B2D1
:10480000042A00D1C0B24FF0000922072AD532781D
:10481000702A07D0DDF800C08CF0100C5CEA0B0C9D
:1048200005D00EE040228DF80420012208E050EA75
:10483000010306D030238DF804308DF805200222C4
:104840009146009B83F0080353EA0B030AD150EA18
:10485000010201D1620705D530228DF804204FF006
:1048600001097F1E3278582A04D039A20C920CAA72
:1048700002920BE03BA2F9E75B46009AFCF7F2F8E4
:104880000C9B9B5C029A521E0292137050EA01022A
:10489000F2D1029804A9081A00F1200B600702D592
:1048A00024F4803400E001275F4502DDA7EB0B0014
:1048B00000E0002000EB0B01009003984944401AEF
:1048C0000390E00306D453462146179A039800F05C
:1048D000A9F90544002706E001A85246C05D1799D2
:1048E00090476D1C7F1C4F45F6DBE0030CD553460B
:1048F0002146179A039800F095F9054404E030200A
:104900005246179990476D1C0099481E0090002947
:10491000F5DC08E00298029952460078491C0291A1
:10492000179990476D1CBBF10001ABF1010BF1DC55
:104930005BE100F065F90544761C307800287FF4CF
:104940000DAE19B02846BDE8F08F0000092801001F
:1049500030313233343536373839616263646566F5
:1049600000000000303132333435363738394142B7
:104970004344454600000000600700D4062708F1C4
:10498000070020F00700F0E80223804603F0004C07
:104990005FEA0C0001D097A009E0200501D596A0A0
:1049A00005E0E00701D095A001E0AFF24C001390C4
:1049B000307823F0004365280CD006DC452809D068
:1049C00046281DD047287FD13BE0662818D06728AD
:1049D0007AD136E00021112F01DB112000E0781C94
:1049E000CDE9000104A90CA8FFF7E6FCDDE90D0103
:1049F0000C9A4FF0000B07F10109109200914EE064
:104A00004FF000400097CDE9011004A90CA8FFF772
:104A1000D3FCDDE90D020C9B0F994FF0000B914682
:104A20001093009211B9791C00EB0109B7EB090052
:104A300003D4C0F1FF3B07F10109A9EB0700019086
:104A400042E0012F00DA01270021112F01DD1120A2
:104A500000E03846CDE9000104A90CA8FFF7ACFC42
:104A6000DDE90D010C9A00914FF0000BB946109250
:104A700021070FD4009A4A4503DA914601E0A9F1D3
:104A80000109B9F1010F05DD109AA9F10101515C8D
:104A90003029F4D0B84202DA10F1040F03DA012110
:104AA000CDE9011010E0002803DC8344A9EB0001EC
:104AB00002E0411C494500DD8946A0EB0B00401C8B
:104AC00001904FF000400290200705D4019848451E
:104AD00002DB4FF0FF30019000208DF84B00029870
:104AE0000DF14B07B0F1004F25D002200C902B2088
:104AF0000D90029800280CDA404202902D200D9073
:104B000007E00A210298FBF797FF3031029007F87F
:104B1000011D0C99481E0C900029F2DC0298002817
:104B2000EFD1791E0D980870307800F0200040F029
:104B3000450007F8020D11A8C01BC01D0290139874
:104B4000007800B1012000EB0901019801EBE07150
:104B5000029801440398401A401E0390E00306D4D3
:104B600053462146179A039800F05CF805441398C1
:104B7000007818B15246179990476D1CE00323D571
:104B800053462146179A039800F04CF805441BE061
:104B9000BBF1000F07DB0098584504DD109817990A
:104BA00010F80B0001E01799302052469047019809
:104BB0000BF1010B401E05F10105019004D12E20DF
:104BC0005246179990476D1CB9F10001A9F10109EE
:104BD000DEDC05E017F8010B5246179990476D1C73
:104BE0000299481E02900029F4DC53462146179A88
:104BF00003989EE62D0000002B000000200000001E
:104C00002DE9F041044600251E461746880404D4C9
:104C100005E039462020B0476D1C641EF9D52846B2
:104C2000BDE8F0812DE9F041044600251E4690467E
:104C3000C80301D5302700E02027880404D505E00B
:104C400041463846B0476D1C641EF9D52846BDE87C
:104C5000F0810A68531C0B601070704710B500F0AB
:104C60003FF8462000F02AF900F08EF8102000F0FE
:104C700025F900F089F800F061F8C82000F08EFAFC
:104C800000F02EF8472000F019F900F07DF801201F
:104C900000F0AEF804490870002000F0A9F80249BD
:104CA000487000F04BF810BD700C002008B50121D1
:104CB0000820FEF70FFA6020ADF8000010208DF8F4
:104CC000030003208DF8020069460448FCF7D1FE7A
:104CD00060210248FCF7ABFF08BD0000000C01405A
:104CE00010B51348006820F47000114908600846A8
:104CF000006840F44010086001200E49086002205E
:104D000000F072FA01200C49C1F89801052000F06A
:104D10006BFA002007490860042000F065FA0020C3
:104D20000549C1F89801022000F05EFA10BD0000AC
:104D3000000C0140948121420080214210B50F48AF
:104D4000006820F470000D4908600846006840F4CF
:104D50004010086000200A490860022000F044FA70
:104D600001200849C1F89801052000F03DFA012012
:104D700003490860042000F037FA10BD000C014020
:104D8000948121420080214210B50024154800681A
:104D900020F47000134908600846006840F40000E1
:104DA0000860012010490860022000F01DFA01206F
:104DB0000E49C1F89801022000F016FA07E0601CC5
:104DC000C4B2FA2C03DBFFF7B9FF012010BD06487F
:104DD000803800680028F2D10349091D086000BF2F
:104DE000F4E70000000C0140948121420080214240
:104DF00070B5054600241948006820F47000174972
:104E000008600846006840F400000860002619E0C9
:104E1000002013490860052000F0E6F9012011493F
:104E2000C1F89801022000F0DFF96006040E0C487A
:104E30008438006808B1601CC4B2022000F0D4F9C4
:104E4000701CC6B2082EE3DB1DB9012000F00CF87F
:104E500002E0002000F008F8204670BD000C014080
:104E6000988121420080214210B50446002010495B
:104E700008601048006820F470000E490860084679
:104E8000006840F4401008600B48C0F894410220CC
:104E900000F0AAF9012006490860042000F0A4F9F6
:104EA00000200549C1F89801022000F09DF910BDCD
:104EB00098812142000C01400080214270B50546D6
:104EC0001A48006820F47000184908600846006815
:104ED00040F44010086000241EE005FA04F000F0E1
:104EE000800018B101201249086002E0002010493A
:104EF0000860022000F078F901200D49091D0860C2
:104F0000042000F071F900200A49C1F8980102203C
:104F100000F06AF9601CC4B2082CDEDB00200449F2
:104F2000091D0860022000F05FF970BD000C01400F
:104F30009481214200802142014609B1086808B9E4
:104F40000020704719B1D1E90120904201D30846F1
:104F5000F7E702E08868401C886041B1D1E9012090
:104F6000904204D28A680868805C2028F2DDD1E98A
:104F70000120904202D18868401E88600846E0E720
:104F800070B50446002522E02568A08900F48070F1
:104F900020B9A06810B1A068FFF7F2FFA08900F463
:104FA000807028B9206918B10A4A20695168884779
:104FB000A08900F4007028B9206A18B1054A206A57
:104FC0005168884703484168204688472C46002C92
:104FD000DAD170BDAC0C002070B504460D4600223D
:104FE0002946204600F02CFA70BD70B504462820F2
:104FF0002168884705461DB128212846FBF7D5F8CA
:10500000284670BD10B5044600221146204600F027
:105010006BF810BD2DE9F0478AB004460E461546E0
:1050200098461C2103A8FBF7C0F8002700202C4954
:105030000860486004B106B932E003940496002089
:105040000590284A07CA07AB07C32648FFF7CDFFDC
:10505000074607B924E003A800F068FE8246FFF780
:105060006BFF81464946384600F08CFD00B917E0D9
:10507000B8F1000F0BD003A8FFF75EFFDDE90410C5
:10508000884203D205990398405C00B108E01DB145
:10509000059903980844286038460AB0BDE8F087AF
:1050A00017B13846FFF76CFFC4B10194002002909D
:1050B000DDE90410884202D20598029004E00498C9
:1050C00010B10498401E02901DB1DDE901010844B1
:1050D00028600348DDE9011206C000BF0020DCE7BC
:1050E000A40C0020AC0C00202DE9F04104460D4634
:1050F000164614B90020BDE8F0812046FBF788F879
:10510000471C33462A4639462046FFF783FFF2E71D
:1051100070B504460D4604B10DB9012070BDAC4216
:1051200001D10020FAE705E0207808B90020F5E772
:10513000641C6D1C2078FBF719F806462878FBF7ED
:1051400015F88642F0D02078FBF710F8064628784C
:10515000FBF70CF8301AE1E710B56FF00400FEF72A
:105160009FFC0A4800680A49B0FBF1F00949087041
:105170000846007800EB4001C1EBC0104FF6FF710C
:1051800001EAC0000449088010BD000004000020AE
:1051900000127A00800C0020820C00200146114A87
:1051A00012884A434FF0E0235A6100229A611A465E
:1051B000126942F001021A6100BF4FF0E02210694B
:1051C00000F001021AB100F48032002AF5D04FF04D
:1051D000E022126922F001024FF0E0231A6100225E
:1051E0009A617047820C00200146114A12784A43A6
:1051F0004FF0E0235A6100229A611A46126942F088
:1052000001021A6100BF4FF0E022106900F00102B4
:105210001AB100F48032002AF5D04FF0E022126972
:1052200022F001024FF0E0231A6100229A617047D8
:10523000800C002000BF054A128802F04002002ABC
:10524000F9D0C2B2014B1B1D1A80704700380140D3
:105250002DE9F04700240120FEF766FB1020FEF741
:1052600063FBC820FFF79AFFFFF7F8FC5C48007863
:105270005C4908805A484078097800EB0120594978
:10528000088008460088FBF733FB8146FBF761FB8B
:1052900007464FF03332544BFBF7BBFA0546FBF79A
:1052A0009BFB52490860002150480068FBF7BAFB9D
:1052B00007D24F494D480068FBF7AAFB01D20A24E8
:1052C00086E04C4949480068FBF7A2FB01D2142450
:1052D0007EE0494945480068FBF79AFB01D2282443
:1052E00076E0464941480068FBF792FB01D2322440
:1052F0006EE043493D480068FBF78AFB01D23C243D
:1053000066E0404939480068FBF782FB01D2462439
:105310005EE03D4935480068FBF77AFB01D2502436
:1053200056E03A4931480068FBF772FB01D25A2433
:105330004EE037492D480068FBF76AFB01D26E2426
:1053400046E0344929480068FBF762FB01D2782423
:105350003EE0314925480068FBF75AFB01D2822420
:1053600036E02E4921480068FBF752FB01D28C241D
:105370002EE02B491D480068FBF74AFB01D296241A
:1053800026E0284919480068FBF742FB01D2A02417
:105390001EE0254915480068FBF73AFB01D2AA2414
:1053A00016E0224911480068FBF732FB01D2B42411
:1053B0000EE01F490D480068FBF72AFB01D2BE240E
:1053C00006E01C4909480068FBF722FB00D2F024E4
:1053D00021461948FEF73EFC2046BDE8F087000054
:1053E000700C0020780C00203333F33F7C0C00203D
:1053F00000004842000096420000C8420000FA4205
:105400000000164300002F430000484300007A4389
:1054100000008C43000096430000A0430000AA4314
:105420000000B4430000BE430000C8430000CD4369
:105430000000E14300004844000400402E20704773
:105440002DE9F04105460E461746002405B116B970
:105450000020BDE8F081AC685FB100E024688CB149
:10546000206A78B13046216AFAF7D9FE0028F5D1D2
:1054700008E000E024682CB13046216AFFF748FEBE
:105480000028F7D10CB1206A08B90020E1E72046D6
:10549000DFE700002DE9F0410B3020F00706104D4A
:1054A00019E02068B04215D3B0420AD9871B201DED
:1054B000D4F80480FAF760FEA019C0E900782860EB
:1054C00004E060682860201DFAF756FE201D266063
:1054D000BDE8F081251D2C68002CE2D10020F7E703
:1054E000E40C002000BF0024FEF72CFAFCF7A4FB1C
:1054F000FDF77CFB01210B48FEF786FB11E000F075
:1055000075FC0020FCF780F8044614B12046FDF736
:105510006DFF0548007820B9FBF7E2FD0120024944
:105520000870ECE700080040D80C002070B5064673
:1055300000243046FFF766FD044624B926A0FEF796
:10554000B1FE002070BD28A12046FFF745FD057D76
:10555000012D04D0022D0CD0032D35D114E023A150
:105560002046FFF739FD007D22494871012008706F
:105570002BE021A12046FFF72FFD007D2049087078
:1055800001201C49087020E01EA12046FFF724FDE1
:10559000808A1E4948801EA12046FFF71DFD808A93
:1055A0001A49C8801CA12046FFF716FD808A1749BA
:1055B00008801CA12046FFF70FFD808A13498880D0
:1055C00001200C49087000E000BF00BF2046FFF733
:1055D000D7FC0120B6E70000706172736520666138
:1055E000696C2E0A00000000636D6400666C6167E0
:1055F000650000007C27002070756D7000000000C1
:10560000C40C002068756D695F760000BC0C00203A
:105610006C696768745F7600736F696C5F68756D3D
:10562000695F760074656D705F7600002DE9F0416A
:1056300080460C4600250027E068B0F57A7F02D34B
:105640000020BDE8F081E068401CE060A1682068AF
:10565000405C5B2800D05FE0A068401CA060204652
:10566000FFF76AFC4CB1D4E90110884205D2A16869
:105670002068405C5D2800D13FE01CB1D4E90110F6
:10568000884203D3A068401EA06045E0A068401E89
:10569000A06000BF04F11000FFF7A7FC064606B9A2
:1056A0003AE015B93546374602E03E607760374646
:1056B000A068401CA0602046FFF73EFC214638460B
:1056C00000F060FA00B927E02046FFF735FC44B14E
:1056D000D4E90110884204D2A1682068405C2C28DB
:1056E000D8D044B1D4E90110884204D2A16820681E
:1056F000405C5D2800D00FE000BFE068401EE06025
:1057000005B16F602020C8F80C00C8F80850A068E8
:10571000401CA060012094E715B12846FFF730FC3B
:1057200000208EE702460023002100BF23E0505CEA
:10573000302806DB505C392803DC505C30380344E9
:1057400015E0505C412806DB505C462803DC505CC9
:10575000373803440BE0505C612806DB505C662858
:1057600003DC505C5738034401E0002070470329F4
:1057700000D21B01491C0429D9D31846F6E70000C2
:105780002DE9F04391B080460C4600BF00201090F8
:10579000FFF754FE814600250CB1206818B900209F
:1057A00011B0BDE8F08300253CE0A1682068084402
:1057B000405D342820D00ADCA0F12B0009282ED22D
:1057C000DFE800F0202D212A2D161718190038289F
:1057D00016D006DC352810D036280FD037281ED139
:1057E0000DE039280DD045280FD0652817D10BE0E2
:1057F00000BF00BF00BF00BF00BF00BF00BF00BFB1
:1058000000BF00BF00BF00BF00BFA1682068084400
:10581000405D0DF8050003E00DF8059000E00AE09A
:1058200000BF6D1C3F2D05D224B1A06828446168DB
:105830008842BAD300BF00200DF8050010A96846C1
:1058400000F092FA06460F4668461099884201D148
:105850000020A5E7C8E90667144A154B30463946CB
:10586000FBF7A2F804D86FF00040C8F8140011E06C
:105870000022104B30463946FBF77EF804D84FF033
:105880000040C8F8140005E030463946FBF742F8FE
:10589000C8F814000820C8F80C00A0686A461099DF
:1058A000891A0844A06001207AE700000000C0FFC8
:1058B000FFFFDF410000E0C12DE9F04180460C46CA
:1058C00000260025E068B0F57A7F02D30020BDE80D
:1058D000F081E068401CE06044B1D4E901108842E6
:1058E00004D2A1682068405C7B2800D07DE0A068DD
:1058F000401CA0602046FFF71FFB4CB1D4E901100B
:10590000884205D2A1682068405C7D2800D15DE016
:105910001CB1D4E90110884203D3A068401EA060E6
:1059200063E0A068401EA06000BF04F11000FFF714
:105930005CFB074607B958E016B93E463D4602E013
:105940002F607D603D46A068401CA0602046FFF7A8
:10595000F3FA2146284600F04EF800B945E020460B
:10596000FFF7EAFA286928620020286144B1D4E9E7
:105970000110884204D2A1682068405C3A2800D017
:1059800033E0A068401CA0602046FFF7D5FA21460E
:10599000284600F0F7F800B927E02046FFF7CCFAD8
:1059A00044B1D4E90110884204D2A1682068405C67
:1059B0002C28BAD044B1D4E90110884204D2A1689D
:1059C0002068405C7D2800D00FE000BFE068401EEA
:1059D000E06006B175604020C8F80C00C8F80860A7
:1059E000A068401CA060012071E716B13046FFF7A7
:1059F000C7FA00206BE72DE9F84F80460C46A168F6
:105A000020680844461CA16820680844451C002002
:105A100000900027A1682068405C222800D0A6E002
:105A20004FF0000AD1460DE028785C2809D1681CA7
:105A30002168401A6168884200D398E009F10109A1
:105A40006D1C6D1C2068281A6168884202D2287873
:105A50002228E9D12068281A6168884202D2287871
:105A6000222800D083E0A16820680844281AA0EB0F
:105A7000090A0AF1010021698847074607B976E05B
:105A8000009761E030785C2807D016F8010B009988
:105A900008700098401C009056E04FF00209A81BC7
:105AA000012800DA63E07078662819D008DC222823
:105AB00032D02F2832D05C282FD0622840D108E085
:105AC0006E2814D0722819D074281ED0752837D1AA
:105AD0002BE00820009908700098401C009030E0EE
